###############################################################################
#
# IAR ELF Linker V8.32.3.193/W32 for ARM                  28/Feb/2019  12:36:14
# Copyright 2007-2019 IAR Systems AB.
#
#    Output file  =  
#        C:\Users\steph pav\Documents\IAR Embedded
#        Workbench\arm\8.32.3\ST\STM32F0xx\stm32f0xx_stdperiph_lib\Project\STM32F0xx_StdPeriph_Templates\DAC\DAC_SignalsGeneration\STM32F051\Exe\Project.out
#    Map file     =  
#        C:\Users\steph pav\Documents\IAR Embedded
#        Workbench\arm\8.32.3\ST\STM32F0xx\stm32f0xx_stdperiph_lib\Project\STM32F0xx_StdPeriph_Templates\DAC\DAC_SignalsGeneration\STM32F051\List\Project.map
#    Command line =  
#        -f C:\Users\STEPHP~1\AppData\Local\Temp\EW7E05.tmp ("C:\Users\steph
#        pav\Documents\IAR Embedded
#        Workbench\arm\8.32.3\ST\STM32F0xx\stm32f0xx_stdperiph_lib\Project\STM32F0xx_StdPeriph_Templates\DAC\DAC_SignalsGeneration\STM32F051\Obj\main.o"
#        "C:\Users\steph pav\Documents\IAR Embedded
#        Workbench\arm\8.32.3\ST\STM32F0xx\stm32f0xx_stdperiph_lib\Project\STM32F0xx_StdPeriph_Templates\DAC\DAC_SignalsGeneration\STM32F051\Obj\startup_stm32f051.o"
#        "C:\Users\steph pav\Documents\IAR Embedded
#        Workbench\arm\8.32.3\ST\STM32F0xx\stm32f0xx_stdperiph_lib\Project\STM32F0xx_StdPeriph_Templates\DAC\DAC_SignalsGeneration\STM32F051\Obj\stm320518_eval.o"
#        "C:\Users\steph pav\Documents\IAR Embedded
#        Workbench\arm\8.32.3\ST\STM32F0xx\stm32f0xx_stdperiph_lib\Project\STM32F0xx_StdPeriph_Templates\DAC\DAC_SignalsGeneration\STM32F051\Obj\stm320518_eval_lcd.o"
#        "C:\Users\steph pav\Documents\IAR Embedded
#        Workbench\arm\8.32.3\ST\STM32F0xx\stm32f0xx_stdperiph_lib\Project\STM32F0xx_StdPeriph_Templates\DAC\DAC_SignalsGeneration\STM32F051\Obj\stm32f0xx_adc.o"
#        "C:\Users\steph pav\Documents\IAR Embedded
#        Workbench\arm\8.32.3\ST\STM32F0xx\stm32f0xx_stdperiph_lib\Project\STM32F0xx_StdPeriph_Templates\DAC\DAC_SignalsGeneration\STM32F051\Obj\stm32f0xx_cec.o"
#        "C:\Users\steph pav\Documents\IAR Embedded
#        Workbench\arm\8.32.3\ST\STM32F0xx\stm32f0xx_stdperiph_lib\Project\STM32F0xx_StdPeriph_Templates\DAC\DAC_SignalsGeneration\STM32F051\Obj\stm32f0xx_comp.o"
#        "C:\Users\steph pav\Documents\IAR Embedded
#        Workbench\arm\8.32.3\ST\STM32F0xx\stm32f0xx_stdperiph_lib\Project\STM32F0xx_StdPeriph_Templates\DAC\DAC_SignalsGeneration\STM32F051\Obj\stm32f0xx_crc.o"
#        "C:\Users\steph pav\Documents\IAR Embedded
#        Workbench\arm\8.32.3\ST\STM32F0xx\stm32f0xx_stdperiph_lib\Project\STM32F0xx_StdPeriph_Templates\DAC\DAC_SignalsGeneration\STM32F051\Obj\stm32f0xx_dac.o"
#        "C:\Users\steph pav\Documents\IAR Embedded
#        Workbench\arm\8.32.3\ST\STM32F0xx\stm32f0xx_stdperiph_lib\Project\STM32F0xx_StdPeriph_Templates\DAC\DAC_SignalsGeneration\STM32F051\Obj\stm32f0xx_dbgmcu.o"
#        "C:\Users\steph pav\Documents\IAR Embedded
#        Workbench\arm\8.32.3\ST\STM32F0xx\stm32f0xx_stdperiph_lib\Project\STM32F0xx_StdPeriph_Templates\DAC\DAC_SignalsGeneration\STM32F051\Obj\stm32f0xx_dma.o"
#        "C:\Users\steph pav\Documents\IAR Embedded
#        Workbench\arm\8.32.3\ST\STM32F0xx\stm32f0xx_stdperiph_lib\Project\STM32F0xx_StdPeriph_Templates\DAC\DAC_SignalsGeneration\STM32F051\Obj\stm32f0xx_exti.o"
#        "C:\Users\steph pav\Documents\IAR Embedded
#        Workbench\arm\8.32.3\ST\STM32F0xx\stm32f0xx_stdperiph_lib\Project\STM32F0xx_StdPeriph_Templates\DAC\DAC_SignalsGeneration\STM32F051\Obj\stm32f0xx_flash.o"
#        "C:\Users\steph pav\Documents\IAR Embedded
#        Workbench\arm\8.32.3\ST\STM32F0xx\stm32f0xx_stdperiph_lib\Project\STM32F0xx_StdPeriph_Templates\DAC\DAC_SignalsGeneration\STM32F051\Obj\stm32f0xx_gpio.o"
#        "C:\Users\steph pav\Documents\IAR Embedded
#        Workbench\arm\8.32.3\ST\STM32F0xx\stm32f0xx_stdperiph_lib\Project\STM32F0xx_StdPeriph_Templates\DAC\DAC_SignalsGeneration\STM32F051\Obj\stm32f0xx_i2c.o"
#        "C:\Users\steph pav\Documents\IAR Embedded
#        Workbench\arm\8.32.3\ST\STM32F0xx\stm32f0xx_stdperiph_lib\Project\STM32F0xx_StdPeriph_Templates\DAC\DAC_SignalsGeneration\STM32F051\Obj\stm32f0xx_it.o"
#        "C:\Users\steph pav\Documents\IAR Embedded
#        Workbench\arm\8.32.3\ST\STM32F0xx\stm32f0xx_stdperiph_lib\Project\STM32F0xx_StdPeriph_Templates\DAC\DAC_SignalsGeneration\STM32F051\Obj\stm32f0xx_iwdg.o"
#        "C:\Users\steph pav\Documents\IAR Embedded
#        Workbench\arm\8.32.3\ST\STM32F0xx\stm32f0xx_stdperiph_lib\Project\STM32F0xx_StdPeriph_Templates\DAC\DAC_SignalsGeneration\STM32F051\Obj\stm32f0xx_misc.o"
#        "C:\Users\steph pav\Documents\IAR Embedded
#        Workbench\arm\8.32.3\ST\STM32F0xx\stm32f0xx_stdperiph_lib\Project\STM32F0xx_StdPeriph_Templates\DAC\DAC_SignalsGeneration\STM32F051\Obj\stm32f0xx_pwr.o"
#        "C:\Users\steph pav\Documents\IAR Embedded
#        Workbench\arm\8.32.3\ST\STM32F0xx\stm32f0xx_stdperiph_lib\Project\STM32F0xx_StdPeriph_Templates\DAC\DAC_SignalsGeneration\STM32F051\Obj\stm32f0xx_rcc.o"
#        "C:\Users\steph pav\Documents\IAR Embedded
#        Workbench\arm\8.32.3\ST\STM32F0xx\stm32f0xx_stdperiph_lib\Project\STM32F0xx_StdPeriph_Templates\DAC\DAC_SignalsGeneration\STM32F051\Obj\stm32f0xx_rtc.o"
#        "C:\Users\steph pav\Documents\IAR Embedded
#        Workbench\arm\8.32.3\ST\STM32F0xx\stm32f0xx_stdperiph_lib\Project\STM32F0xx_StdPeriph_Templates\DAC\DAC_SignalsGeneration\STM32F051\Obj\stm32f0xx_spi.o"
#        "C:\Users\steph pav\Documents\IAR Embedded
#        Workbench\arm\8.32.3\ST\STM32F0xx\stm32f0xx_stdperiph_lib\Project\STM32F0xx_StdPeriph_Templates\DAC\DAC_SignalsGeneration\STM32F051\Obj\stm32f0xx_syscfg.o"
#        "C:\Users\steph pav\Documents\IAR Embedded
#        Workbench\arm\8.32.3\ST\STM32F0xx\stm32f0xx_stdperiph_lib\Project\STM32F0xx_StdPeriph_Templates\DAC\DAC_SignalsGeneration\STM32F051\Obj\stm32f0xx_tim.o"
#        "C:\Users\steph pav\Documents\IAR Embedded
#        Workbench\arm\8.32.3\ST\STM32F0xx\stm32f0xx_stdperiph_lib\Project\STM32F0xx_StdPeriph_Templates\DAC\DAC_SignalsGeneration\STM32F051\Obj\stm32f0xx_usart.o"
#        "C:\Users\steph pav\Documents\IAR Embedded
#        Workbench\arm\8.32.3\ST\STM32F0xx\stm32f0xx_stdperiph_lib\Project\STM32F0xx_StdPeriph_Templates\DAC\DAC_SignalsGeneration\STM32F051\Obj\stm32f0xx_wwdg.o"
#        "C:\Users\steph pav\Documents\IAR Embedded
#        Workbench\arm\8.32.3\ST\STM32F0xx\stm32f0xx_stdperiph_lib\Project\STM32F0xx_StdPeriph_Templates\DAC\DAC_SignalsGeneration\STM32F051\Obj\system_stm32f0xx.o"
#        --redirect _Printf=_PrintfSmall --redirect _Scanf=_ScanfSmall
#        --no_out_extension -o "C:\Users\steph pav\Documents\IAR Embedded
#        Workbench\arm\8.32.3\ST\STM32F0xx\stm32f0xx_stdperiph_lib\Project\STM32F0xx_StdPeriph_Templates\DAC\DAC_SignalsGeneration\STM32F051\Exe\Project.out"
#        --map "C:\Users\steph pav\Documents\IAR Embedded
#        Workbench\arm\8.32.3\ST\STM32F0xx\stm32f0xx_stdperiph_lib\Project\STM32F0xx_StdPeriph_Templates\DAC\DAC_SignalsGeneration\STM32F051\List\Project.map"
#        --config "C:\Users\steph pav\Documents\IAR Embedded
#        Workbench\arm\8.32.3\ST\STM32F0xx\stm32f0xx_stdperiph_lib\Project\STM32F0xx_StdPeriph_Templates\DAC\DAC_SignalsGeneration\..\..\..\..\Libraries\CMSIS\Device\ST\STM32F0xx\Source\Templates\iar\stm32f051_flash.icf"
#        --semihosting --entry __iar_program_start --vfe --text_out locale)
#
###############################################################################

*******************************************************************************
*** RUNTIME MODEL ATTRIBUTES
***

CppFlavor       = *
__SystemLibrary = DLib
__dlib_version  = 6


*******************************************************************************
*** HEAP SELECTION
***

The basic heap was selected because no calls to memory allocation
functions were found in the application outside of system library
functions, and there are calls to deallocation functions in the
application.


*******************************************************************************
*** PLACEMENT SUMMARY
***

"A0":  place at 0x800'0000 { ro section .intvec };
"P1":  place in [from 0x800'0000 to 0x800'ffff] { ro };
define block CSTACK with size = 1K, alignment = 8 { };
define block HEAP with size = 512, alignment = 8 { };
"P2":  place in [from 0x2000'0000 to 0x2000'1fff] {
          rw, block CSTACK, block HEAP };
initialize by copy { rw };

  Section            Kind         Address   Size  Object
  -------            ----         -------   ----  ------
"A0":                                       0xc0
  .intvec            ro code   0x800'0000   0xc0  startup_stm32f051.o [1]
                             - 0x800'00c0   0xc0

"P1":                                      0xb03
  .text              ro code   0x800'00c0  0x188  main.o [1]
  .text              ro code   0x800'0248   0xdc  stm320518_eval.o [1]
  .text              ro code   0x800'0324   0x9c  stm32f0xx_dac.o [1]
  .text              ro code   0x800'03c0  0x120  stm32f0xx_dma.o [1]
  .text              ro code   0x800'04e0   0x90  stm32f0xx_rcc.o [1]
  .text              ro code   0x800'0570   0xb2  stm32f0xx_gpio.o [1]
  .text              ro code   0x800'0622    0x2  startup_stm32f051.o [1]
  .text              ro code   0x800'0624   0xc4  stm32f0xx_tim.o [1]
  .text              ro code   0x800'06e8   0x64  stm32f0xx_syscfg.o [1]
  .text              ro code   0x800'074c   0xb0  stm32f0xx_exti.o [1]
  .text              ro code   0x800'07fc   0x70  stm32f0xx_misc.o [1]
  .text              ro code   0x800'086c  0x128  system_stm32f0xx.o [1]
  .text              ro code   0x800'0994   0x4c  stm32f0xx_it.o [1]
  .rodata            const     0x800'09e0   0x40  main.o [1]
  .text              ro code   0x800'0a20   0x3c  packbits_init_single.o [4]
  .text              ro code   0x800'0a5c   0x28  startup_stm32f051.o [1]
  .text              ro code   0x800'0a84   0x28  data_init.o [4]
  .iar.init_table    const     0x800'0aac   0x10  - Linker created -
  .text              ro code   0x800'0abc   0x1e  cmain.o [4]
  .text              ro code   0x800'0ada    0x4  low_level_init.o [2]
  .text              ro code   0x800'0ade    0x8  exit.o [2]
  .text              ro code   0x800'0ae6    0x2  startup_stm32f051.o [1]
  .text              ro code   0x800'0ae8    0xa  cexit.o [4]
  .text              ro code   0x800'0af2    0x2  startup_stm32f051.o [1]
  .text              ro code   0x800'0af4   0x14  exit.o [5]
  .rodata            const     0x800'0b08   0x1c  stm320518_eval.o [1]
  .rodata            const     0x800'0b24   0x10  stm320518_eval.o [1]
  .rodata            const     0x800'0b34   0x10  stm320518_eval.o [1]
  .text              ro code   0x800'0b44    0xc  cstartup_M.o [4]
  .rodata            const     0x800'0b50    0x8  main.o [1]
  .rodata            const     0x800'0b58    0x8  stm320518_eval.o [1]
  .rodata            const     0x800'0b60    0x8  stm320518_eval.o [1]
  .rodata            const     0x800'0b68    0x8  stm320518_eval.o [1]
  .text              ro code   0x800'0b70    0x2  startup_stm32f051.o [1]
  .text              ro code   0x800'0b72    0x2  startup_stm32f051.o [1]
  .text              ro code   0x800'0b74    0x2  startup_stm32f051.o [1]
  .text              ro code   0x800'0b76    0x2  startup_stm32f051.o [1]
  .text              ro code   0x800'0b78    0x2  startup_stm32f051.o [1]
  .text              ro code   0x800'0b7a    0x2  startup_stm32f051.o [1]
  .text              ro code   0x800'0b7c    0x2  startup_stm32f051.o [1]
  .text              ro code   0x800'0b7e    0x2  startup_stm32f051.o [1]
  .text              ro code   0x800'0b80    0x2  startup_stm32f051.o [1]
  .text              ro code   0x800'0b82    0x2  startup_stm32f051.o [1]
  .text              ro code   0x800'0b84    0x2  startup_stm32f051.o [1]
  .text              ro code   0x800'0b86    0x2  startup_stm32f051.o [1]
  .text              ro code   0x800'0b88    0x2  startup_stm32f051.o [1]
  .text              ro code   0x800'0b8a    0x2  startup_stm32f051.o [1]
  .text              ro code   0x800'0b8c    0x2  startup_stm32f051.o [1]
  .text              ro code   0x800'0b8e    0x2  startup_stm32f051.o [1]
  .text              ro code   0x800'0b90    0x2  startup_stm32f051.o [1]
  .text              ro code   0x800'0b92    0x2  startup_stm32f051.o [1]
  .text              ro code   0x800'0b94    0x2  startup_stm32f051.o [1]
  .text              ro code   0x800'0b96    0x2  startup_stm32f051.o [1]
  .text              ro code   0x800'0b98    0x2  startup_stm32f051.o [1]
  .text              ro code   0x800'0b9a    0x2  startup_stm32f051.o [1]
  .text              ro code   0x800'0b9c    0x2  startup_stm32f051.o [1]
  .text              ro code   0x800'0b9e    0x2  startup_stm32f051.o [1]
  .text              ro code   0x800'0ba0    0x2  startup_stm32f051.o [1]
  .rodata            const     0x800'0ba2    0x0  packbits_init_single.o [4]
  Initializer bytes  const     0x800'0ba2   0x21  <for P2-1>
                             - 0x800'0bc3  0xb03

"P2", part 1 of 2:                          0x5a
  P2-1                        0x2000'0000   0x5a  <Init block>
    .data            inited   0x2000'0000   0x1c  stm320518_eval.o [1]
    .bss             inited   0x2000'001c   0x10  main.o [1]
    .bss             inited   0x2000'002c   0x2c  main.o [1]
    .data            inited   0x2000'0058    0x1  main.o [1]
    .data            inited   0x2000'0059    0x1  main.o [1]
                            - 0x2000'005a   0x5a

"P2", part 2 of 2:                         0x400
  CSTACK                      0x2000'0060  0x400  <Block>
    CSTACK           uninit   0x2000'0060  0x400  <Block tail>
                            - 0x2000'0460  0x400

Unused ranges:

         From           To    Size
         ----           --    ----
   0x800'0bc3   0x800'ffff  0xf43d
  0x2000'005a  0x2000'005f     0x6
  0x2000'0460  0x2000'1fff  0x1ba0


*******************************************************************************
*** INIT TABLE
***

          Address      Size
          -------      ----
Copy/packbits (__iar_packbits_init_single3)
    1 source range, total size 0x21 (36% of destination):
           0x800'0ba2  0x21
    1 destination range, total size 0x5a:
          0x2000'0000  0x5a



*******************************************************************************
*** MODULE SUMMARY
***

    Module                  ro code  ro data  rw data
    ------                  -------  -------  -------
command line/config:
    -------------------------------------------------
    Total:

C:\Users\steph pav\Documents\IAR Embedded Workbench\arm\8.32.3\ST\STM32F0xx\stm32f0xx_stdperiph_lib\Project\STM32F0xx_StdPeriph_Templates\DAC\DAC_SignalsGeneration\STM32F051\Obj: [1]
    main.o                      392       95       62
    startup_stm32f051.o         288
    stm320518_eval.o            220       94       28
    stm32f0xx_dac.o             156
    stm32f0xx_dma.o             288
    stm32f0xx_exti.o            176
    stm32f0xx_gpio.o            178
    stm32f0xx_it.o               76
    stm32f0xx_misc.o            112
    stm32f0xx_rcc.o             144
    stm32f0xx_syscfg.o          100
    stm32f0xx_tim.o             196
    system_stm32f0xx.o          296
    -------------------------------------------------
    Total:                    2 622      189       90

dl6M_tln.a: [2]
    exit.o                        8
    low_level_init.o              4
    -------------------------------------------------
    Total:                       12

m6M_tl.a: [3]
    -------------------------------------------------
    Total:

rt6M_tl.a: [4]
    cexit.o                      10
    cmain.o                      30
    cstartup_M.o                 12
    data_init.o                  40
    packbits_init_single.o       60
    -------------------------------------------------
    Total:                      152

shb_l.a: [5]
    exit.o                       20
    -------------------------------------------------
    Total:                       20

    Linker created                        16    1 024
-----------------------------------------------------
    Grand Total:              2 806      205    1 114


*******************************************************************************
*** ENTRY LIST
***

Entry                       Address  Size  Type      Object
-----                       -------  ----  ----      ------
.iar.init_table$$Base    0x800'0aac         --   Gb  - Linker created -
.iar.init_table$$Limit   0x800'0abc         --   Gb  - Linker created -
?main                    0x800'0abd        Code  Gb  cmain.o [4]
BUTTON_CLK               0x800'0b08  0x1c  Data  Gb  stm320518_eval.o [1]
BUTTON_EXTI_LINE         0x800'0b34  0x10  Data  Gb  stm320518_eval.o [1]
BUTTON_IRQn              0x800'0b68   0x8  Data  Gb  stm320518_eval.o [1]
BUTTON_PIN               0x800'0b24  0x10  Data  Gb  stm320518_eval.o [1]
BUTTON_PIN_SOURCE        0x800'0b60   0x8  Data  Gb  stm320518_eval.o [1]
BUTTON_PORT             0x2000'0000  0x1c  Data  Gb  stm320518_eval.o [1]
BUTTON_PORT_SOURCE       0x800'0b58   0x8  Data  Gb  stm320518_eval.o [1]
CSTACK$$Base            0x2000'0060         --   Gb  - Linker created -
CSTACK$$Limit           0x2000'0460         --   Gb  - Linker created -
DAC_Cmd                  0x800'0367  0x26  Code  Gb  stm32f0xx_dac.o [1]
DAC_Config               0x800'01d5  0x38  Code  Lc  main.o [1]
DAC_DMACmd               0x800'038d  0x2a  Code  Gb  stm32f0xx_dac.o [1]
DAC_DeInit               0x800'0325  0x18  Code  Gb  stm32f0xx_dac.o [1]
DAC_Init                 0x800'033d  0x2a  Code  Gb  stm32f0xx_dac.o [1]
DAC_InitStructure       0x2000'001c  0x10  Data  Gb  main.o [1]
DMA_Cmd                  0x800'0499  0x1e  Code  Gb  stm32f0xx_dma.o [1]
DMA_DeInit               0x800'03c1  0x9c  Code  Gb  stm32f0xx_dma.o [1]
DMA_Init                 0x800'045d  0x3c  Code  Gb  stm32f0xx_dma.o [1]
DMA_InitStructure       0x2000'002c  0x2c  Data  Gb  main.o [1]
EXTI4_15_IRQHandler      0x800'09a1  0x38  Code  Gb  stm32f0xx_it.o [1]
EXTI_ClearITPendingBit   0x800'07df   0x6  Code  Gb  stm32f0xx_exti.o [1]
EXTI_GetITStatus         0x800'07c5  0x1a  Code  Gb  stm32f0xx_exti.o [1]
EXTI_Init                0x800'074d  0x78  Code  Gb  stm32f0xx_exti.o [1]
Escalator8bit            0x800'0b50   0x8  Data  Gb  main.o [1]
GPIO_Init                0x800'0571  0xb2  Code  Gb  stm32f0xx_gpio.o [1]
HardFault_Handler        0x800'0997   0x4  Code  Gb  stm32f0xx_it.o [1]
NMI_Handler              0x800'0995   0x2  Code  Gb  stm32f0xx_it.o [1]
NVIC_Init                0x800'07fd  0x64  Code  Gb  stm32f0xx_misc.o [1]
PendSV_Handler           0x800'099d   0x2  Code  Gb  stm32f0xx_it.o [1]
RCC_AHBPeriphClockCmd    0x800'04e1  0x1e  Code  Gb  stm32f0xx_rcc.o [1]
RCC_APB1PeriphClockCmd   0x800'0521  0x1e  Code  Gb  stm32f0xx_rcc.o [1]
RCC_APB1PeriphResetCmd   0x800'0541  0x1e  Code  Gb  stm32f0xx_rcc.o [1]
RCC_APB2PeriphClockCmd   0x800'0501  0x1e  Code  Gb  stm32f0xx_rcc.o [1]
Region$$Table$$Base      0x800'0aac         --   Gb  - Linker created -
Region$$Table$$Limit     0x800'0abc         --   Gb  - Linker created -
STM_EVAL_PBInit          0x800'0249  0xbe  Code  Gb  stm320518_eval.o [1]
SVC_Handler              0x800'099b   0x2  Code  Gb  stm32f0xx_it.o [1]
SYSCFG_EXTILineConfig    0x800'06e9  0x60  Code  Gb  stm32f0xx_syscfg.o [1]
SelectedWavesForm       0x2000'0058   0x1  Data  Gb  main.o [1]
SetSysClock              0x800'08c5  0x98  Code  Lc  system_stm32f0xx.o [1]
Sine12bit                0x800'09e0  0x40  Data  Gb  main.o [1]
SysTick_Handler          0x800'099f   0x2  Code  Gb  stm32f0xx_it.o [1]
SystemInit               0x800'086d  0x58  Code  Gb  system_stm32f0xx.o [1]
TIM_Cmd                  0x800'0691  0x1e  Code  Gb  stm32f0xx_tim.o [1]
TIM_Config               0x800'020d  0x3c  Code  Lc  main.o [1]
TIM_SelectOutputTrigger
                         0x800'06d5  0x10  Code  Gb  stm32f0xx_tim.o [1]
TIM_TimeBaseInit         0x800'0625  0x5a  Code  Gb  stm32f0xx_tim.o [1]
TIM_TimeBaseStructInit   0x800'067f  0x12  Code  Gb  stm32f0xx_tim.o [1]
WaveChange              0x2000'0059   0x1  Data  Gb  main.o [1]
__ICFEDIT_region_RAM_end__ {Abs}
                        0x2000'1fff        Data  Gb  <internal module>
__ICFEDIT_region_RAM_start__ {Abs}
                        0x2000'0000        Data  Gb  <internal module>
__cmain                  0x800'0abd        Code  Gb  cmain.o [4]
__exit                   0x800'0af5  0x14  Code  Gb  exit.o [5]
__iar_data_init3         0x800'0a85  0x28  Code  Gb  data_init.o [4]
__iar_packbits_init_single3
                         0x800'0a21  0x3c  Code  Gb  packbits_init_single.o [4]
__iar_program_start      0x800'0b45        Code  Gb  cstartup_M.o [4]
__low_level_init         0x800'0adb   0x4  Code  Gb  low_level_init.o [2]
__vector_table           0x800'0000        Data  Gb  startup_stm32f051.o [1]
_call_main               0x800'0ac9        Code  Gb  cmain.o [4]
_exit                    0x800'0ae9        Code  Gb  cexit.o [4]
_main                    0x800'0ad7        Code  Gb  cmain.o [4]
exit                     0x800'0adf   0x8  Code  Gb  exit.o [2]
main                     0x800'00c1  0xf0  Code  Gb  main.o [1]


[1] = C:\Users\steph pav\Documents\IAR Embedded Workbench\arm\8.32.3\ST\STM32F0xx\stm32f0xx_stdperiph_lib\Project\STM32F0xx_StdPeriph_Templates\DAC\DAC_SignalsGeneration\STM32F051\Obj
[2] = dl6M_tln.a
[3] = m6M_tl.a
[4] = rt6M_tl.a
[5] = shb_l.a

  2 806 bytes of readonly  code memory
    205 bytes of readonly  data memory
  1 114 bytes of readwrite data memory

Errors: none
Warnings: none
