:020000040800F2
:1000000008040020A5060008290600082B060008A1
:1000100000000000000000000000000000000000E0
:100020000000000000000000000000002F06000893
:100030000000000000000000310600083306000840
:10004000FB0200083B0500082F0700083B070008DB
:100050005D0700085F0700086107000863070008E4
:100060006507000867070008690700086B070008B4
:10007000350600086D0700086F07000871070008C3
:1000800073070008750700080000000077070008E4
:10009000790700087B0700087D0700087F07000834
:1000A0008107000883070008850700088707000804
:1000B00089070008000000008B070008000000000E
:1000C00080B53C48016801220A4302603A490A6847
:1000D0003A4B13400B600268394B134003600268CF
:1000E000384B134003600868374A02400A603748BB
:1000F00001680F229143016035480168354A0A4082
:1001000002603548016801229143016000203349B3
:10011000086000F001F801BD1CB5002001900090BE
:1001200024490A6880235B0213430B6080229202F9
:100130000B6813400093019B5B1C0193009B002BF9
:1001400004D1019BA024E401A342EFD10B681A4023
:10015000002A02D00120009000E0009000980128C1
:1001600025D111201E4A10601348026802600268FF
:10017000026002681B4B13400360026888235B0324
:10018000134303600A6880235B0413430B600A680F
:100190009201FCD5016803229143016001680222AB
:1001A0000A43026001680C220A40082AFAD113BDF2
:1001B0000000000000100240041002400CB8FFF8DC
:1001C000FFFFF6FEFFFFFBFFFFFFC0FF2C1002400A
:1001D00030100240ACFEFFFF341002400810024015
:1001E00000200240FF7FC0FF38B50400364884423B
:1001F00009D18025AD000121280000F0AFF80021D1
:10020000280000F0ABF831BD70B40022C4682F4B59
:1002100023400C680D796D0325438C682C43CD6811
:1002200025430E692E434C6934431C43C46070BCA3
:100230007047002101600A0002718160C1600161A4
:100240004161704700B50A00D2B2002A04D082682A
:1002500001231343836003E0826802231343836016
:1002600000BD10B40023846A0C4384620724A343B6
:100270001343436110BC7047816804220A438260C3
:100280007047006C80B2704700B51300DBB2002BE2
:1002900003D043680B43436002E043688B434360F1
:1002A00000BD70B50200002003000400CD0103D59D
:1002B0009668074D354000E015680D4201D00120D9
:1002C000FFE7C0B270BD00000024014003D2FFFF71
:1002D000FFFFFFFE70B50200002003000400556818
:1002E0000D4016680E40002E03D0002D01D00120D5
:1002F000FFE7C0B270BD01607047FEE700B50A00BD
:10030000D2B2002A04D01D4A13680343136003E0ED
:100310001A4A13688343136000BD000000B50A0049
:10032000D2B2002A04D0164A13680343136003E0D4
:10033000134A13688343136000BD000000B50A0030
:10034000D2B2002A04D00F4A13680343136003E0BB
:100350000C4A13688343136000BD000000B50A0017
:10036000D2B2002A04D0084A13680343136003E0A2
:10037000054A13688343136000BD00001410024057
:10038000181002401C1002400C10024080B500F012
:1003900003F800F028F8FEE710B586B001218020B0
:1003A0008002FFF7ABFF68460321017100242100A2
:1003B000C1711020009069469020C00500F064F8DB
:1003C000012180208005FFF7B9FF02940394049473
:1003D000059402A9002000F0B1F80121002000F0EE
:1003E000C2F806B010BD78B589B0012180200003A5
:1003F000FFF784FF012180208000FFF78FFF02209C
:10040000019001A80321017100242100C17101A9FB
:100410001B4800F039F81B4D2800FFF7E5FE03A844
:10042000FFF707FF03940126300003A90871059424
:100430000794089403A92800FFF7E6FE072280210D
:1004400009012800FFF70DFF012204212800FFF712
:100450001BFF68460C21017044708670684600F0EE
:10046000ABF801212800FFF7EDFE01212800FFF77E
:1004700018FF0028F9D02800FFF7FEFE0AB070BD73
:100480000008004800240140F8B500231C001A00B1
:100490000093102B50D2012425009D402A000D68A6
:1004A00015400095009D954244D10D79012D02D053
:1004B0000D79022D1CD186680327BC461D0002273A
:1004C0007D436746AF40BE43866086684F79BC4631
:1004D0001D0002277D436746AF403743876085880C
:1004E0009C40A543858084888D799D4025438580E7
:1004F000032406681F0002256F432500BD40AE435C
:10050000066006680F79BC461D0002277D436746DA
:10051000AF4037430760C5681E0002277E43B440E2
:10052000A543C560C468CD791E0002277E43B5404F
:100530002543C5605B1CACE7F1BDFEE7F0B40023CA
:100540001C001B4D2E681B4A824096430A684F6868
:1005500017438A683A43CF6817433A0082403243D0
:100560002A60F0BC704710B50A00D2B2002A06D04B
:100570000F4A1368012484401C43146005E00C4AB0
:10058000136801248440A343136010BD81B00200AE
:100590000020009006480090009B100008301818BA
:1005A0000090080080B2009B186001B07047000006
:1005B00000740040FE0F0000F0B500228178002991
:1005C00024D0164B01788910042461435958032420
:1005D000FF250678264008277E43B540A943457885
:1005E000AD01EDB20678344008267443A5400D43B2
:1005F0002A0001788910042461435A5001210378AC
:10060000DB06DB0E9940064B196006E001210378FA
:10061000DB06DB0E9940034B1960F0BD00E400E0FF
:1006200000E100E080E100E0704700B5FEE77047C0
:100630007047704738B50A4C04212000FFF74AFE86
:1006400000280CD0074D2000FFF71BFE28802988CA
:100650000020FFF79BFF04212000FFF74CFE31BD77
:10066000002401400000002070B40123002413E0A6
:100670000168001D194202D04D466D1E49190C60DB
:10068000091D121F042AFAD20D00960701D50C800D
:10069000AD1C1A4000D02C700268001D002AE7D162
:1006A00070BC70470548064900220260001D884260
:1006B000FBD30448804704480047000000000020A6
:1006C000FF1F0020C10000085107000810B50749AE
:1006D00079441831064C7C44163404E0081D0A683D
:1006E000891888470100A142F8D110BD0800000018
:1006F0001400000075FFFFFF040000000000002050
:100700000000000000F00DF8002801D0FFF7DEFF28
:1007100000BF00BF002000BF00BFFFF737FE00F0A2
:1007200002F80120704780B500F002F801BDFEE735
:100730000746384600F002F8FBE7FEE780B500BF49
:1007400000BF024A11001820ABBEFBE726000200E2
:1007500000BF00BF00BF00BFFFF7D4FFFEE7FEE70A
:10076000FEE7FEE7FEE7FEE7FEE7FEE7FEE7FEE761
:10077000FEE7FEE7FEE7FEE7FEE7FEE7FEE7FEE751
:0C078000FEE7FEE7FEE7FEE7FEE7FEE70F
:040000050800075197
:00000001FF
